{
  "contractName": "Main",
  "abi": [
    {
      "inputs": [],
      "name": "isRecordedWhiteList",
      "outputs": [
        {
          "internalType": "bool",
          "name": "recorded",
          "type": "bool"
        }
      ],
      "stateMutability": "view",
      "type": "function",
      "constant": true
    },
    {
      "inputs": [],
      "name": "recordInWhiteList",
      "outputs": [],
      "stateMutability": "nonpayable",
      "type": "function"
    },
    {
      "inputs": [],
      "name": "isSigned",
      "outputs": [
        {
          "internalType": "bool",
          "name": "signed",
          "type": "bool"
        }
      ],
      "stateMutability": "view",
      "type": "function",
      "constant": true
    },
    {
      "inputs": [],
      "name": "getSigns",
      "outputs": [
        {
          "components": [
            {
              "internalType": "address",
              "name": "from",
              "type": "address"
            },
            {
              "internalType": "uint256",
              "name": "timestamp",
              "type": "uint256"
            }
          ],
          "internalType": "struct Main.Sign[]",
          "name": "",
          "type": "tuple[]"
        }
      ],
      "stateMutability": "view",
      "type": "function",
      "constant": true
    },
    {
      "inputs": [],
      "name": "doSign",
      "outputs": [],
      "stateMutability": "nonpayable",
      "type": "function"
    },
    {
      "inputs": [],
      "name": "checkSafe",
      "outputs": [
        {
          "components": [
            {
              "internalType": "uint256",
              "name": "timestamp",
              "type": "uint256"
            },
            {
              "internalType": "uint256",
              "name": "amount",
              "type": "uint256"
            }
          ],
          "internalType": "struct Main.Safe",
          "name": "safe",
          "type": "tuple"
        }
      ],
      "stateMutability": "view",
      "type": "function",
      "constant": true
    },
    {
      "inputs": [],
      "name": "putInSafe",
      "outputs": [],
      "stateMutability": "payable",
      "type": "function",
      "payable": true
    },
    {
      "inputs": [],
      "name": "getFromSafe",
      "outputs": [],
      "stateMutability": "nonpayable",
      "type": "function"
    }
  ],
  "bytecode": "0x608060405234801561001057600080fd5b50610f3f806100206000396000f3fe60806040526004361061007b5760003560e01c80639ec7ac1c1161004e5780639ec7ac1c14610104578063a90f8cbc1461012f578063dd7e2d3b14610146578063e66a6b22146101505761007b565b80631a474cb314610080578063428c8cd51461009757806348b452be146100ae5780639a9d01de146100d9575b600080fd5b34801561008c57600080fd5b5061009561017b565b005b3480156100a357600080fd5b506100ac610242565b005b3480156100ba57600080fd5b506100c361036b565b6040516100d09190610d8e565b60405180910390f35b3480156100e557600080fd5b506100ee6103d6565b6040516100fb9190610c91565b60405180910390f35b34801561011057600080fd5b506101196105bc565b6040516101269190610cb3565b60405180910390f35b34801561013b57600080fd5b50610144610604565b005b61014e6107a7565b005b34801561015c57600080fd5b506101656108e5565b6040516101729190610cb3565b60405180910390f35b60008060003373ffffffffffffffffffffffffffffffffffffffff1673ffffffffffffffffffffffffffffffffffffffff16815260200190815260200160002054146101fc576040517f08c379a00000000000000000000000000000000000000000000000000000000081526004016101f390610cce565b60405180910390fd5b60016000803373ffffffffffffffffffffffffffffffffffffffff1673ffffffffffffffffffffffffffffffffffffffff16815260200190815260200160002081905550565b60026000803373ffffffffffffffffffffffffffffffffffffffff1673ffffffffffffffffffffffffffffffffffffffff16815260200190815260200160002054106102c3576040517f08c379a00000000000000000000000000000000000000000000000000000000081526004016102ba90610d0e565b60405180910390fd5b6001339080600181540180825580915050600190039060005260206000200160009091909190916101000a81548173ffffffffffffffffffffffffffffffffffffffff021916908373ffffffffffffffffffffffffffffffffffffffff160217905550426000803373ffffffffffffffffffffffffffffffffffffffff1673ffffffffffffffffffffffffffffffffffffffff16815260200190815260200160002081905550565b61037361092e565b600260003373ffffffffffffffffffffffffffffffffffffffff1673ffffffffffffffffffffffffffffffffffffffff16815260200190815260200160002060405180604001604052908160008201548152602001600182015481525050905090565b6060600060018054905067ffffffffffffffff81111561041f577f4e487b7100000000000000000000000000000000000000000000000000000000600052604160045260246000fd5b60405190808252806020026020018201604052801561045857816020015b610445610948565b81526020019060019003908161043d5790505b50905060005b6001805490508110156105b457610473610948565b600182815481106104ad577f4e487b7100000000000000000000000000000000000000000000000000000000600052603260045260246000fd5b9060005260206000200160009054906101000a900473ffffffffffffffffffffffffffffffffffffffff16816000019073ffffffffffffffffffffffffffffffffffffffff16908173ffffffffffffffffffffffffffffffffffffffff1681525050600080826000015173ffffffffffffffffffffffffffffffffffffffff1673ffffffffffffffffffffffffffffffffffffffff1681526020019081526020016000205481602001818152505080838381518110610595577f4e487b7100000000000000000000000000000000000000000000000000000000600052603260045260246000fd5b60200260200101819052505080806105ac90610e91565b91505061045e565b508091505090565b6000806000803373ffffffffffffffffffffffffffffffffffffffff1673ffffffffffffffffffffffffffffffffffffffff1681526020019081526020016000205411905090565b6000600260003373ffffffffffffffffffffffffffffffffffffffff1673ffffffffffffffffffffffffffffffffffffffff1681526020019081526020016000206040518060400160405290816000820154815260200160018201548152505090506000816000015114156106ae576040517f08c379a00000000000000000000000000000000000000000000000000000000081526004016106a590610d6e565b60405180910390fd5b600581600001516106bf9190610df3565b421015610701576040517f08c379a00000000000000000000000000000000000000000000000000000000081526004016106f890610d2e565b60405180910390fd5b60003390508073ffffffffffffffffffffffffffffffffffffffff166108fc83602001519081150290604051600060405180830381858888f19350505050158015610750573d6000803e3d6000fd5b50600260003373ffffffffffffffffffffffffffffffffffffffff1673ffffffffffffffffffffffffffffffffffffffff168152602001908152602001600020600080820160009055600182016000905550505050565b6000600260003373ffffffffffffffffffffffffffffffffffffffff1673ffffffffffffffffffffffffffffffffffffffff168152602001908152602001600020600001541461082c576040517f08c379a000000000000000000000000000000000000000000000000000000000815260040161082390610d4e565b60405180910390fd5b6000341161086f576040517f08c379a000000000000000000000000000000000000000000000000000000000815260040161086690610cee565b60405180910390fd5b61087761092e565b428160000181815250503481602001818152505080600260003373ffffffffffffffffffffffffffffffffffffffff1673ffffffffffffffffffffffffffffffffffffffff168152602001908152602001600020600082015181600001556020820151816001015590505050565b600060016000803373ffffffffffffffffffffffffffffffffffffffff1673ffffffffffffffffffffffffffffffffffffffff1681526020019081526020016000205411905090565b604051806040016040528060008152602001600081525090565b6040518060400160405280600073ffffffffffffffffffffffffffffffffffffffff168152602001600081525090565b60006109848383610c53565b60408301905092915050565b61099981610e49565b82525050565b60006109aa82610db9565b6109b48185610dd1565b93506109bf83610da9565b8060005b838110156109f05781516109d78882610978565b97506109e283610dc4565b9250506001810190506109c3565b5085935050505092915050565b610a0681610e5b565b82525050565b6000610a19602583610de2565b91507f596f752061726520616c7265616479207265636f7264656420696e207768697460008301527f656c6973740000000000000000000000000000000000000000000000000000006020830152604082019050919050565b6000610a7f601f83610de2565b91507f596f752063616e27742070757420656d7074696e65737320696e2073616665006000830152602082019050919050565b6000610abf601683610de2565b91507f596f752061726520616c7265616479207369676e6564000000000000000000006000830152602082019050919050565b6000610aff602283610de2565b91507f5061737365642074696d65206973206c657373207468616e2035207365636f6e60008301527f64730000000000000000000000000000000000000000000000000000000000006020830152604082019050919050565b6000610b65602283610de2565b91507f596f7520616c72656164792070757420796f7572206d6f6e657920696e20736160008301527f66650000000000000000000000000000000000000000000000000000000000006020830152604082019050919050565b6000610bcb602183610de2565b91507f596f7520686176656e27742070757420616e79206d6f6e657920696e2073616660008301527f65000000000000000000000000000000000000000000000000000000000000006020830152604082019050919050565b604082016000820151610c3a6000850182610c82565b506020820151610c4d6020850182610c82565b50505050565b604082016000820151610c696000850182610990565b506020820151610c7c6020850182610c82565b50505050565b610c8b81610e87565b82525050565b60006020820190508181036000830152610cab818461099f565b905092915050565b6000602082019050610cc860008301846109fd565b92915050565b60006020820190508181036000830152610ce781610a0c565b9050919050565b60006020820190508181036000830152610d0781610a72565b9050919050565b60006020820190508181036000830152610d2781610ab2565b9050919050565b60006020820190508181036000830152610d4781610af2565b9050919050565b60006020820190508181036000830152610d6781610b58565b9050919050565b60006020820190508181036000830152610d8781610bbe565b9050919050565b6000604082019050610da36000830184610c24565b92915050565b6000819050602082019050919050565b600081519050919050565b6000602082019050919050565b600082825260208201905092915050565b600082825260208201905092915050565b6000610dfe82610e87565b9150610e0983610e87565b9250827fffffffffffffffffffffffffffffffffffffffffffffffffffffffffffffffff03821115610e3e57610e3d610eda565b5b828201905092915050565b6000610e5482610e67565b9050919050565b60008115159050919050565b600073ffffffffffffffffffffffffffffffffffffffff82169050919050565b6000819050919050565b6000610e9c82610e87565b91507fffffffffffffffffffffffffffffffffffffffffffffffffffffffffffffffff821415610ecf57610ece610eda565b5b600182019050919050565b7f4e487b7100000000000000000000000000000000000000000000000000000000600052601160045260246000fdfea2646970667358221220406989b139b519236893597d80b0c016594fd9610ab8dbbd510f20640509945564736f6c63430008000033",
  "immutableReferences": {},
  "source": "// SPDX-License-Identifier: MIT\r\npragma solidity ^0.8.0;\r\n\r\ncontract Main {\r\n    struct Safe {\r\n        uint timestamp;\r\n        uint amount;\r\n    }\r\n\r\n    struct Sign {\r\n        address from;\r\n        uint timestamp;\r\n    }\r\n\r\n    mapping(address => uint) private signsStorage;\r\n    address[] private signsAddressesStorage;\r\n    mapping(address => Safe) private safesStorage;\r\n\r\n    function isRecordedWhiteList() public view returns (bool recorded) {\r\n        recorded = signsStorage[msg.sender] > 0;\r\n        return recorded;\r\n    }\r\n\r\n    function recordInWhiteList() public {\r\n        require(signsStorage[msg.sender] == 0, 'You are already recorded in whitelist');\r\n\r\n        signsStorage[msg.sender] = 1;\r\n    }\r\n\r\n    function isSigned() public view returns (bool signed) {\r\n        signed = signsStorage[msg.sender] > 1;\r\n        return signed;\r\n    }\r\n\r\n    function getSigns() public view returns (Sign[] memory) {\r\n        Sign[] memory signs = new Sign[](signsAddressesStorage.length);\r\n        for (uint i = 0; i < signsAddressesStorage.length; i++) {\r\n            Sign memory sign;\r\n            sign.from = signsAddressesStorage[i];\r\n            sign.timestamp = signsStorage[sign.from];\r\n            signs[i] = sign;\r\n        }\r\n        return signs;\r\n    }\r\n\r\n    function doSign() public {\r\n        require(signsStorage[msg.sender] < 2, 'You are already signed');\r\n\r\n        signsAddressesStorage.push(msg.sender);\r\n        signsStorage[msg.sender] = block.timestamp;\r\n    }\r\n\r\n    function checkSafe() public view returns (Safe memory safe) {\r\n        safe = safesStorage[msg.sender];\r\n        return safe;\r\n    }\r\n\r\n    function putInSafe() public payable {\r\n        require(safesStorage[msg.sender].timestamp == 0, 'You already put your money in safe');\r\n        require(msg.value > 0, 'You can\\'t put emptiness in safe');\r\n\r\n        Safe memory safe;\r\n        safe.timestamp = block.timestamp;\r\n        safe.amount = msg.value;\r\n        safesStorage[msg.sender] = safe;\r\n    }\r\n\r\n    function getFromSafe() public {\r\n        Safe memory safe = safesStorage[msg.sender];\r\n        require(safe.timestamp != 0, 'You haven\\'t put any money in safe');\r\n        // require(block.timestamp >= safe.timestamp + 7*24*60*60, 'Passed time is less than a week');\r\n        require(block.timestamp >= safe.timestamp + 5, 'Passed time is less than 5 seconds');\r\n\r\n        address payable safeOwner = payable(msg.sender);\r\n        safeOwner.transfer(safe.amount);\r\n        delete safesStorage[msg.sender];\r\n    }\r\n}\r\n",
  "sourcePath": "D:\\Vitali\\Projects\\work\\white-list\\contracts\\Main.sol",
  "compiler": {
    "name": "solc",
    "version": "0.8.0+commit.c7dfd78e.Emscripten.clang"
  },
  "schemaVersion": "3.4.11",
  "updatedAt": "2023-02-13T07:23:23.370Z",
  "networkType": "ethereum",
  "devdoc": {
    "kind": "dev",
    "methods": {},
    "version": 1
  },
  "userdoc": {
    "kind": "user",
    "methods": {},
    "version": 1
  }
}